:020000040800F2
:1000000000200020D9010008DF010008E3010008FA
:1000100000000000000000000000000000000000E0
:1000200000000000000000000000000019020008AD
:1000300000000000000000001D0200082D0E000856
:10004000B90C000800000000B90C0008B90C000849
:10005000B90C0008B90C0008B90C0008B90C00086C
:1000600000000000B90C0008B90C0008B90C000829
:10007000B90C0008B90C0008B90C00080000000019
:10008000B90C0008B90C000800000000B90C000809
:10009000B90C0008B90C0008B90C0008B90C00082C
:1000A000B90C0008B90C0008B90C0008B90C00081C
:1000B000B90C000800000000000000000000000073
:1000C00030B583B000F0ACFD314B324A1360324A98
:1000D0001360324B324A33498B4204D211681960A3
:1000E00004330432F7E72B4B1A682F4B9A4200D0A7
:1000F000FEE7294B1A682D4B9A42F9D1244B2C4A22
:1001000013602C4A13602C4B02E000221A60043367
:100110002A4A9342F9D3264B1B68002B03D1254B67
:100120001B68002B00D0FEE700F07EFD694601A8A9
:1001300000F024FD224C234BE41AA4100025AC420D
:1001400014DC214C214BE41AA4100025AC4213DC32
:100150000099019800F040FE05001D4C1D4BE41A6B
:10016000A410002C0EDC280000F0E2FCAA00154BC5
:10017000D35898470135E2E7AA00144BD358984763
:100180000135E3E7013CA200124BD3589847E8E75A
:10019000BABADECA0000002074000020000000206F
:1001A000BC19000878000020785634123254769832
:1001B00078000020140100207800002018010020A1
:1001C00050020008500200085002000850020008C7
:1001D000500200085002000810B5FFF771FF00BE82
:1001E000FEE704207146084202D0EFF3098001E0E7
:1001F000EFF3088071460B4A104770B504000D00FC
:10020000044800F0C3FC2900200000F011FD00BEEE
:10021000FEE7C0465819000800BEFEE700BEFEE734
:0802200070470000FB0100081B
:10022800BC1900080000002078000020BC19000854
:1002380000000010000000107800002018010020C5
:0802480000000010000000108E
:1002500010B5040000F066FCFA21890000F064FE8D
:1002600000F056F8012000222100404200F020F862
:10027000002010BD10B5064A136810210B4313600F
:100280000020FFF7E5FF00F0AFFD002010BDC046E5
:1002900000200240024A1368013313607047C046D1
:1002A0000C010020014B18687047C0460C0100206B
:1002B00070B5002811DB8408134DC034A4006259C6
:1002C00003231840C000FC331E008640B24389015E
:1002D0000B4083401343635170BDC0B20F220240F4
:1002E000083A920806329200084BD3185D6803243E
:1002F0002040C000FF2214008440A54389010A4029
:1003000082402A435A60E7E700E100E000ED00E0A8
:1003100001380A4B98420FD8094A50600948036ACD
:100320001B021B0AC02109060B43036200239360D2
:1003300007331360002070470120FCE7FFFFFF0038
:1003400010E000E000ED00E0042805D0054A136845
:1003500004218B4313607047024A136804210B4346
:100360001360F8E710E000E0704710B5FFF7FCFFFE
:1003700010BD0000F0B5C64600B582B0002338E0DD
:10038000032600E00026AE4035003D430234A400C1
:10039000554EA551554C25684246D4432E00264063
:1003A0004A68D20302D5424615432E004F4D2E60B7
:1003B0006D682E0026404A68920302D542461543D6
:1003C0002E004A4D6E60AD682E0026404A68D2026B
:1003D00002D5424615432E00444DAE60ED682C40D8
:1003E0004A68920202D542462A4314003F4AD4602A
:1003F00001330A681400DC4071D001259D402A4079
:100400009046F5D04C68022C01D0122C0ED1DC089D
:100410000834A400275807261E40B6000F22B24019
:1004200097430A69B24016003E43265002685F00B7
:1004300003242600BE40F643324094464A681440E6
:10044000BC406246144304604C68621E012A03D912
:10045000112C01D0122C10D184683440A446CC68F1
:10046000BC406246144384604468AC434A68120945
:10047000012515409D4025434560C46826408C6891
:10048000BC403443C4604A68D200B1D5184DAE694F
:1004900001242643AE61AD692C400194019C9C0867
:1004A000A51CAD00104EAF5903251D40AD000F2611
:1004B000AE40B7439026F605B04200D162E70D4E3C
:1004C000B04208D00C4EB04207D00C4EB04200D122
:1004D00056E7052657E7012655E7022653E702B0FF
:1004E00004BC9046F0BDC04600000140000401403D
:1004F000001002400004004800080048000C0048BA
:10050000002A01D1816270478161FCE770B582B039
:1005100004000368DB0726D5AE4B5A680C23134052
:10052000042B18D0AB4B5A680C231340082B0ED069
:100530006368012B3CD0002B51D1A64B1A68A64909
:100540000A401A601A68A5490A401A6036E0A14BB1
:100550005B68DB03ECD59F4B1B689B0303D563688B
:10056000002B00D1ECE123689B0773D5994B5B68A6
:100570000C221A425DD0974B5A680C231340082B6B
:1005800053D0E368002B00D186E0924A1368012122
:100590000B431360FFF786FE05008E4B1B689B071D
:1005A00071D4FFF77FFE401B0228F6D90320CAE171
:1005B000884A116880235B020B4313606368002B39
:1005C00025D0FFF76FFE0500824B1B689B03CAD442
:1005D000FFF768FE401B6428F6D90320B3E1052B22
:1005E00009D07C4B1A687C490A401A601A687B491A
:1005F0000A401A60E2E7774B19688022D2020A4368
:100600001A601968802252020A431A60D6E7FFF77F
:1006100049FE05006F4B1B689B03A4D5FFF742FE04
:10062000401B6428F6D903208DE16A4B5B68DB032D
:10063000A7D4684B1B689B0704D5E368012B01D046
:10064000012080E163490B68F82293432269D200BC
:1006500013430B6023681B0744D5E369002B2ED09E
:100660005C4A536A01210B435362FFF71BFE0500EE
:10067000584B5B6A9B0735D4FFF714FE401B0228DA
:10068000F6D903205FE153490B68F82293432269AE
:10069000D20013430B60DDE74E4A136801218B4300
:1006A0001360FFF7FFFD05004A4B1B689B07D1D580
:1006B000FFF7F8FD401B0228F6D9032043E1454A25
:1006C000536A01218B435362FFF7ECFD0500414B58
:1006D0005B6A9B0706D5FFF7E5FD401B0228F6D9AC
:1006E000032030E123685B0700D47FE0394BDB69EE
:1006F000DB001DD4374AD169802040050143D16118
:10070000D36903400193019B0125354B1B68DB0531
:1007100010D5A368012B21D0002B36D12D4B1A6A9E
:1007200001218A431A621A6A03318A431A621AE063
:100730000025EAE72A4A116880235B000B43136017
:10074000FFF7B0FD0600264B1B68DB05E1D4FFF781
:10075000A9FD801B6428F6D90320F4E01D4A136A22
:1007600001210B431362A368002B24D0FFF79AFDED
:100770000600184B1B6A9B0736D4FFF793FD801BBE
:10078000184B9842F5D90320DDE0052B09D0114B19
:100790001A6A01218A431A621A6A03318A431A6269
:1007A000E1E70C4B1A6A04210A431A621A6A0339F8
:1007B0000A431A62D7E7FFF775FD0600054B1B6A6F
:1007C0009B0711D5FFF76EFD801B064B9842F5D9AC
:1007D0000320B8E000100240FFFFFEFFFFFFFBFF19
:1007E0000070004088130000012D33D02368DB0621
:1007F00010D56369012B33D0053351D1544A536B63
:1008000004218B435363536BF4318B43A169C900BB
:100810000B435363236A002B00D193E04C4A516889
:100820000C220A40082A00D18FE0022B4FD0484A00
:10083000136848490B401360FFF734FD0400444B34
:100840001B689B017AD5FFF72DFD001B0228F6D906
:10085000032078E03E4AD3693F490B40D361C5E7A6
:100860003B4B5A6B04210A435A635A6B03390A43C0
:100870005A63FFF717FD0500354B5B6B9B0706D4EA
:10088000FFF710FD401B0228F6D903205BE030493A
:100890004B6BF8229343A269D20013434B63B9E731
:1008A0002B4B5A6B04210A435A635A6B03398A4310
:1008B0005A63FFF7F7FC0500254B5B6B9B07A9D537
:1008C000FFF7F0FC401B0228F6D903203BE0204A4A
:1008D000136820490B401360FFF7E4FC05001C4B34
:1008E0001B689B0106D5FFF7DDFC401B0228F6D9EB
:1008F000032028E0164BDA6A0F218A43E16A0A4393
:10090000DA625A6815490A40A16A606A01430A43DB
:100910005A601968802252040A431A60FFF7C2FC29
:1009200004000B4B1B689B0106D4FFF7BBFC001BAC
:100930000228F6D9032006E0002004E0002002E0AF
:10094000012000E0002002B070BD0120FBE7C0469E
:1009500000100240FFFFFFFEFFFFFFEFFFFFC2FF9F
:1009600030B589B004AA174B180032C832C2110042
:1009700002680A606A46103313CB13C21B68136007
:10098000114B5A680C231340082B19D1910C0733D3
:10099000194004A8445C0C49C96A0B406946C95C0B
:1009A000D30308D463011B1B9801C01AC0000419AB
:1009B000200209B030BD054800F0B6FA6043F8E700
:1009C0000248F6E7881800080010024000127A007A
:1009D00070B505000C004D4B1A68012313408B4283
:1009E0000BD24A490B680122934323430B600B68E7
:1009F0001A40A24201D0012070BD2B689B0706D58A
:100A0000434A5368F0218B43A9680B4353602B681A
:100A1000DB074BD56B68012B20D0022B24D03C4A3E
:100A2000126892076FD53A494A68032082431343FC
:100A30004B60FFF737FC06006B68012B1AD0022BC6
:100A400026D0334B5B680C221A422FD0FFF72AFCCA
:100A5000801B304B9842F4D90320CDE72C4A126812
:100A60009203E0D40120C7E7294A12689201DAD440
:100A70000120C1E7264B5A680C231340042B15D0E4
:100A8000FFF710FC801B234B9842F3D90320B3E7F8
:100A90001F4B5A680C231340082B07D0FFF702FCAA
:100AA000801B1C4B9842F3D90320A5E7174B1A680B
:100AB00001231340A3420BD914490B68012293432D
:100AC00023430B600B681A40A24201D0012093E738
:100AD0002B685B0706D50E4A53680F490B40E9683F
:100AE0000B435360FFF73CFF094B5A6812090F2371
:100AF00013400A4AD35CD840094B18600020FFF726
:100B0000A7FB002078E7012076E7C04600200240DE
:100B10000010024088130000FFF8FFFF781900085A
:100B20000C000020014B18687047C0460C000020E4
:100B3000FEE7000010B503000D4A1268002A0BD032
:100B40000B4A1068033303229343C318094A9342A4
:100B500006D8074A136010BD054A07491160EFE740
:100B600000F06EFA0C23036001204042F3E7C04618
:100B70007C000020001C00201801002001230360DD
:100B8000014B0B607047C046040000200FB400B555
:100B900083B004AB04CB01938021064800F08AFAAD
:100BA000002803DD0100034800F036F803B008BC5C
:100BB00004B0184784000020F0B5C64600B586B0E2
:100BC000040001914356002B01D0019F1CE0042634
:100BD000301C211CABBE041C019806B004BC90461E
:100BE000F0BD0022A25602A9CA5401330134B34217
:100BF000F7D302AA904600224146CA540425281C75
:100C00004146ABBE8046BF1B002FE5D03E00102FF3
:100C100000D910260023EAE710B5FFF7CDFF10BD7D
:100C200010B500F009F910BD10B500F035F910BD90
:100C300070B504000D001548FFF7A8FF216814489F
:100C4000FFF7A4FF61681348FFF7A0FFA1681248EF
:100C5000FFF79CFFE1681148FFF798FF21691048F2
:100C6000FFF794FF61690F48FFF790FFA1690E48F5
:100C7000FFF78CFFE1690D48FFF788FF0C48FFF78D
:100C800085FF29000B48FFF781FF70BDA8180008F9
:100C9000B8180008C8180008D8180008E818000894
:100CA000F818000808190008181900082819000881
:100CB0003819000840190008FEE7000070B588B038
:100CC000224B596980200003014359615A6902404F
:100CD0000092009A59698020C003014359615A6902
:100CE00002400192019A5A69802189020A435A619D
:100CF0005B690B400293029B9025ED0500222021A9
:100D00002800FFF7FDFB80239B010393104B049306
:100D10000024059403A90F48FFF72CFB0C23039331
:100D20000A3B0493059406940126079603A928001C
:100D3000FFF720FB2023039304960594069403A950
:100D40002800FFF717FB08B070BDC0460010024036
:100D50000000211000080048FEE7000000B591B037
:100D600002230493012207920F3208920C9300236E
:100D70000D93A02292030E920F9304A8FFF7C6FBD7
:100D800000281FD107230093053B01930023029302
:100D9000039301216846FFF71BFE002816D1FFF7D9
:100DA000C1FEFA21890000F0BFF8FFF7B1FA042074
:100DB000FFF7CAFA0120002200214042FFF778FA2B
:100DC00011B000BD87210348FFF7C6FF94210148F9
:100DD000FFF7C2FF6819000810B5FFF74BFAFFF7DD
:100DE000BDFFFFF76BFFFEE700B583B00E4A9169C8
:100DF000012319439161926913400193019B0520DE
:100E0000002200214042FFF753FA02200022002175
:100E10004042FFF74DFA0120002200214042FFF737
:100E200047FA03B000BDC0460010024010B5FFF7FE
:100E300031FAFFF79AFA10BD114B1A6801210A43E3
:100E40001A605A680F4802405A601A680E480240F9
:100E50001A601A680D4802401A605A680C4802402D
:100E60005A60DA6A0F208243DA621A6B094802403C
:100E70001A635A6B8A435A6300229A607047C046CD
:100E8000001002400CB8FF08FFFFF6FEFFFFFBFF5B
:100E9000FFFFC0FFECFEFFFF10B51F4B5A680C238D
:100EA0001340042B16D0082B18D0002B03D01B4B5B
:100EB0001B4A1A6002E0194B194A1A60164B5A680D
:100EC00012090F231340174AD35C144A1168D94002
:100ED000116010BD114B124A1A60EFE70E4B5C68AF
:100EE0005A68A40C0F210C400234DB6A194001310E
:100EF000D30306D50A4800F017F84443074B1C609B
:100F0000DCE763011B1B9801C01AC000041923020F
:100F1000024A1360D2E7C046001002400C000020D5
:100F200000127A0078190008002243088B4274D31B
:100F300003098B425FD3030A8B4244D3030B8B42DA
:100F400028D3030C8B420DD3FF22090212BA030CE3
:100F50008B4202D31212090265D0030B8B4219D3C4
:100F600000E0090AC30B8B4201D3CB03C01A5241E4
:100F7000830B8B4201D38B03C01A5241430B8B422C
:100F800001D34B03C01A5241030B8B4201D30B0315
:100F9000C01A5241C30A8B4201D3CB02C01A52413C
:100FA000830A8B4201D38B02C01A5241430A8B42FF
:100FB00001D34B02C01A5241030A8B4201D30B02E8
:100FC000C01A5241CDD2C3098B4201D3CB01C01A02
:100FD000524183098B4201D38B01C01A524143090C
:100FE0008B4201D34B01C01A524103098B4201D3FA
:100FF0000B01C01A5241C3088B4201D3CB00C01A67
:10100000524183088B4201D38B00C01A52414308DE
:101010008B4201D34B00C01A5241411A00D2014603
:10102000524110467047FFE701B5002000F006F876
:1010300002BDC0460029F7D076E770477047C0462A
:10104000014B18687047C04610000020002310B5FF
:101050009A4200D110BDCC5CC4540133F8E730B5DE
:1010600014009BB005001A00002C05DA8B230360E6
:10107000012040421BB030BD822368469B00838123
:101080000023009104919C4200D0631E02930593BB
:10109000012369465B42CB8128001E9B00F078F853
:1010A000431C01DA8B232B60002CE3D00023009A31
:1010B0001370DFE707B5009313000A000100024830
:1010C0000068FFF7CCFF0EBD10000020F0B58E6861
:1010D00085B007000C00039201939E423CD89023F8
:1010E0008A89DB001A4234D00325096923685B1A18
:1010F0000293636902985D43EB0F5D19019B6D10CC
:1011000001331B18AB4200D91D00530532D529000D
:10111000380000F019FB061E09D10C233B60402368
:101120000120A28940421343A38105B0F0BD029A79
:101130002169FFF78BFFA389144A1A4080231343C8
:10114000A381029B2661F61826606561019EED1A57
:10115000A560019B9E4200D9019E32000399206840
:1011600000F095FAA36800209B1BA36023689E19DA
:101170002660DAE72A00380000F044FB061EE0D1C2
:101180002169380000F096FAC7E7C0467FFBFFFFF1
:10119000F0B59FB0029005938B890F0016001B06D7
:1011A00011D50B69002B0ED1402100F0CDFA38602B
:1011B0003861002805D10C23029A013813601FB052
:1011C000F0BD40237B61002306AC6361203363766E
:1011D0001033A37635002B78002B01D0252B46D178
:1011E000AB1B04930CD0320039000298FFF76EFF5E
:1011F000431C00D1AEE06269049B94466344636182
:101200002B78002B00D1A5E001220023524262601E
:1012100002A9543252186E1C2360E360A36013705D
:10122000A36531780522544800F026FA751C002881
:101230001FD12268D30604D5532302A95B182021AD
:101240001970130704D5532302A95B182B211970B9
:1012500033782A2B16D0350000210A20E3682A783B
:101260006E1C303A092A4ED9002918D010E00135F9
:10127000B1E7414B2268C01A012383401343236026
:101280002E00CEE7059B191D1B680591002B01DB85
:10129000099304E05B42E3600223134323602B784D
:1012A0002E2B0AD16B782A2B35D1059B02351A1DBE
:1012B0001B680592002B2BDB0793304E2978032205
:1012C000300000F0D9F9002806D04023801B83406D
:1012D00022680135134323602978062228486E1CB2
:1012E000217600F0C9F900283CD0264B002B25D1EF
:1012F0000722059B07339343083305936369039AD9
:101300009B18636166E7434301219B183500A6E7FC
:1013100001235B42D0E700230A201A0001356360F5
:1013200029786E1C3039092903D9002BC5D00792C2
:10133000C3E74243012352183500F1E705AB0093A0
:101340003A00114B2100029800E000BF0390039B7C
:101350000133D3D1BB890B985B0600D42FE7012062
:1013600040422CE705AB00933A00074B210002985E
:1013700000F07AF8EAE7C046881900088E190008DC
:101380009219000800000000CD100008F7B5150004
:1013900001938A680B6900900C00934200DA1300F5
:1013A00022002B6043321278002A01D001332B60D7
:1013B00023689B0602D52B6802332B60062723681F
:1013C0001F4027D0230043331B785A1E93412268C5
:1013D000920630D42200019943320098089EB0470B
:1013E000431C25D0062320682A68E16803400025B5
:1013F000042B03D18D1AEB43DB171D40A368226930
:10140000934201DD9B1AED180027BD4220D1002038
:1014100010E00137E3682A689B1ABB42D2DD220044
:101420000123193201990098089EB047431CF0D15E
:1014300001204042FEBD3020E118433108702100F8
:101440005A1C45310978A218433202331170C1E7A2
:10145000220001231A3201990098089EB047431CCC
:10146000E6D00137D1E70000F0B589B004920A0058
:1014700043320593039002920A7E0C000E9B6E2A63
:1014800000D186E01FD8632A33D008D8002A00D1C3
:101490008CE0582A4DD0250042352A7030E0642A6D
:1014A00001D0692AF7D1196825680A1D280629D5AF
:1014B00008681A60002803DA2D23029A404213704C
:1014C0006B4E0A274FE0732A74D008D86F2A1FD0BA
:1014D000702AE0D1202209680A43226003E0752ABD
:1014E00016D0782AD7D12200782145321170614E6A
:1014F00022E025001A684235111D196013682B700F
:10150000012365E008681A606906D3D500B2D1E707
:1015100019682568081D186008682E0605D5544E00
:1015200008276F2A1BD00A2719E06D06F7D580B26D
:10153000F5E745314E4E0A7018682268011D0068B3
:101540001960150621D5D30702D520231A4322603E
:101550001027002803D1202322689A432260230009
:10156000002243331A706368A360002B58DB042207
:10157000216891432160002854D1029D002B5AD04C
:101580002500337842352B7055E05506DBD580B207
:10159000D9E71A680D68101D4969186013682E068E
:1015A00001D5196002E06D06FBD519800023029D6C
:1015B00023614FE01A68111D1960156800216268E7
:1015C000280000F059F8002801D0401B60606368D3
:1015D00023610023029A13703CE023692A000499D6
:1015E0000398059DA847431C3ED023689B0715D44C
:1015F000079BE068984239DA180037E0220001239F
:10160000193204990398059EB047431C2CD001352C
:10161000E368079A9B1AAB42F0DCE9E70025F7E79D
:101620000028ADD0029D3900FFF704FD735C013D39
:101630002B700028F7D1082F09D12368DB0706D5C6
:1016400063682269934202DC3023013D2B70029BC8
:101650005B1B2361059B07AA00932100049B039851
:10166000FFF794FE431CB8D10120404209B0F0BD01
:1016700099190008AA190008C9B28218904201D12C
:101680000020704703788B42FBD00130F6E710B59D
:10169000884202D98B18984203D3002307E08B5C61
:1016A0008354013AFBD210BDCC5CC45401339A423E
:1016B000FAD1F8E770B50500002910D00C1F236897
:1016C000002B00DAE418280000F0D4F81D4A136853
:1016D000002B05D163601460280000F0CCF870BDC9
:1016E000A34209D9216860188342F3D118685B6866
:1016F00041182160EEE713005A68002A01D0A24287
:10170000F9D919685818A0420BD12068091858183F
:1017100019608242E0D110685268411819605A601D
:10172000DAE7A04202D90C232B60D5E721686018C4
:10173000824203D1106852684118216062605C6087
:10174000CAE7C04604010020032370B5CD1C9D43A9
:10175000083506000C2D1ED20C25A9421DD83000DC
:1017600000F088F8254A14682100002919D1244C7A
:101770002368002B03D1300000F06AF820602900B4
:10178000300000F065F8431C2BD10C23300033608F
:1017900000F071F803E0002DDFDA0C233360002045
:1017A00070BD0B685B1B19D40B2B03D90B60CC18D5
:1017B000256003E04B688C420DD11360300000F0CF
:1017C0005AF8200007220B30231D9043C31AE7D09C
:1017D0005A42E250E4E763600C00EFE70C0049680E
:1017E000C3E70323C41C9C43A042E1D0211A30006C
:1017F00000F02EF8431CDBD1C7E7C04604010020EF
:1018000008010020F8B507000D001600002905D1D9
:101810001100FFF799FF04002000F8BD002A03D152
:10182000FFF748FF3400F7E700F026F82C00B0423D
:10183000F2D231003800FFF787FF041EECD02900F8
:101840003200FFF703FC29003800FFF733FFE3E71E
:10185000002370B5064C050008002360FFF76AF905
:10186000431C03D12368002B00D02B6070BDC04601
:1018700010010020704770470B1F1B68181F002BBA
:1018800001DA0B58C018704702030405060708095F
:101890000A0B0C0D0E0F10100102030405060708B9
:1018A000090A0B0C0D0E0F10537461636B206672E6
:1018B000616D653A0A000000205230203D2020254D
:1018C0003038580A00000000205231203D202025E9
:1018D0003038580A00000000205232203D202025D8
:1018E0003038580A00000000205233203D202025C7
:1018F0003038580A0000000020523132203D2025A7
:101900003038580A00000000204C52203D2020258D
:101910003038580A00000000205043203D20202588
:101920003038580A0000000020505352203D202536
:101930003038580A000000004D6973630A00000047
:10194000204C522F4558435F52455455524E3D202E
:10195000253038580A0000005B48617264466175A2
:101960006C745D0A000000002E2E2F7372632F6DC1
:1019700061696E2E6300000000000000000000009E
:101980000102030406070809232D302B2000686C90
:101990004C00656667454647003031323334353692
:1019A00037383941424344454600303132333435CB
:0B19B0003637383961626364656600F9
:1019BC0078563412800000200000000000127A00DB
:1019CC0014000020000000000000000000000000D7
:1019DC0000000000000000000000000000000000FB
:1019EC0000000000000000000000000000000000EB
:1019FC0000000000000000000000000000000000DB
:101A0C0000000000000000000000000000000000CA
:101A1C0000000000000000000000000000000000BA
:081A2C0000000000325476981E
:04000005080000C12E
:00000001FF
